:100000000C9449000C945B000C945B000C945B0016
:100010000C945B000C945B000C945B000C945B00F4
:100020000C945B000C945B000C945B000C945B00E4
:100030000C945B000C945B000C945B000C945B00D4
:100040000C945B000C945B000C945B000C945B00C4
:100050000C94D3000C945B000C945B000C945B003C
:100060000C945B000C945B000C945B000C945B00A4
:100070000C945B000C945B000C945B006D0284029A
:100080005D01B30113027A018701DB01E80133024C
:10009000400211241FBECFEFD0E1DEBFCDBF21E073
:1000A000A0E0B1E001C01D92A032B207E1F70E94CA
:1000B00009010C94A1020C9400000E94F9008BE04D
:1000C00091E090930A018093090181E191E090937E
:1000D000010180930001109202010895CF93DF93F4
:1000E0008FEF0E940101C0E0D0E0E0910901F091A2
:1000F0000A01EC0FFD1F8081882374F480E80E94C0
:100100000101E0910901F0910A01EC0FFD1F8081CE
:1001100080580E9401010CC080E00E940101E09122
:100120000901F0910A01EC0FFD1F80810E9401017D
:100130002196C630D105C9F68EEF0E940101DF91EC
:10014000CF9108958E3F29F08F3FB1F410920201B4
:100150000895E3E0F1E080E090E02191A0910001BA
:10016000B0910101A80FB91F2C930196863091051B
:10017000A1F71092020108959091020190FF09C029
:10018000E92FE695F0E0ED5FFE4F2081820F80833E
:1001900006C0E92FE695F0E0ED5FFE4F80839F5F9C
:1001A0009093020108951F920F920FB60F9211249F
:1001B0002F933F934F935F936F937F938F939F936F
:1001C000AF93BF93EF93FF938091C6000E94A2006C
:1001D000FF91EF91BF91AF919F918F917F916F911F
:1001E0005F914F913F912F910F900FBE0F901F90F5
:1001F000189582E08093C40088E98093C1007894C8
:100200000895E0ECF0E0908195FFFDCF8093C6006B
:1002100008950E945D000E9412010E9428010E9420
:100220006E00FBCF82E080931D0181E090E090930F
:1002300018018093170110921F0110921E01109255
:100240001C0110921B0110921A01109219010895BD
:100250002091130124FF0BC0EDE0F1E08081846068
:10026000808381E090E090931A018093190125FF2B
:100270000BC0EDE0F1E080818860808381E090E058
:1002800090931C0180931B0126FF0BC0EDE0F1E071
:1002900080818061808381E090E090931F01809352
:1002A0001E0180911D0190E08B30910508F042C144
:1002B000FC01E25CFF4F0C949B028091190190912C
:1002C0001A01019721F485E080931D010895809122
:1002D000120180FF2FC1EBE0F1E080818F7E816011
:1002E000808310921D0181E090E09093180180932B
:1002F000170108958091120180FF1CC1EBE0F1E02D
:1003000080818860808386E080931D0108952FEFAF
:100310008DE399E4215080409040E1F700C0000057
:10032000EBE0F1E08081877F808380911101882359
:100330000CF000C18081806180832FEF8DE399E410
:10034000215080409040E1F700C00000EDE0F1E076
:1003500080818B7F808310921A011092190182E0B4
:1003600080931D01089580911B0190911C010197BC
:1003700021F487E080931D0108958091120182FF8E
:10038000D9C0EBE0F1E080818F7B80838091170101
:1003900090911801019731F48081816080831092DF
:1003A0001D010895EBE0F1E080818260808381E0AF
:1003B00080931D0108958091120182FFBBC0EBE084
:1003C000F1E080818062808388E080931D01089540
:1003D0002FEF8DE399E4215080409040E1F700C079
:1003E0000000EBE0F1E080818F7D8083809112013D
:1003F00081FFA0C08081806480832FEF8DE399E42A
:10040000215080409040E1F700C00000EDE0F1E0B5
:100410008081877F808310921C0110921B0183E0F2
:1004200080931D01089580911E0190911F010197F5
:1004300021F489E080931D0108958091120184FFC9
:1004400079C0ECE0F1E080818E7F8083EBE0F1E029
:1004500080818260808381E080931D011092180169
:100460001092170108958091120184FF63C0EBE0A0
:10047000F1E08081806880838AE080931D01089587
:100480002FEF8DE399E4215080409040E1F700C0C8
:100490000000EBE0F1E080818F7780838091120192
:1004A00083FF48C0ECE0F1E08081816080832FEF22
:1004B0008DE399E4215080409040E1F700C00000B6
:1004C000EDE0F1E080818F7E808310921F01109219
:1004D0001E0184E080931D0108958091110182FF27
:1004E00008C0EBE0F1E090819E7F908394E09093D0
:1004F0001D0181FF1FC0EBE0F1E080818E7F8083D2
:1005000083E080931D0108958091110180FF08C050
:10051000EBE0F1E090819D7F908392E090931D014C
:1005200081FF08C0EBE0F1E080818D7F808383E074
:1005300080931D010895EE0FFF1F0590F491E02DAB
:060540000994F894FFCFBE
:00000001FF
